{"address":"0x49C0eB5488A4414A8fa504e811Bc65F6dF8B1Ce8","bytecode":"0x61018060405262000015600160036000620001d1565b610160523480156200002657600080fd5b5060405162004d5338038062004d53833981016040819052620000499162000203565b848484848483838383838383838c808060004690507f8b73c3c69bb8fe3d512ecc4cf759cc79239f7b179b0ffacaa9a75d522b39400f7f9e5dae0addaf20578aeb5d70341d092b53b4e14480ac5726438fd436df7ba4277f06c015bd22b4c69690933c1058878ebdfef31f9aaae40bbe86d8a09fe1b2972c8385604051602001620000d9959493929190620002a2565b60408051601f1981840301815282825280516020918201206080526001600160601b031960608a901b1660c052633c9506a360e21b835290516001600160a01b038916965063f2541a8c95506004808401955091935091829003018186803b1580156200014557600080fd5b505afa1580156200015a573d6000803e3d6000fd5b505050506040513d601f19601f8201168201806040525081019062000180919062000289565b60e0908152606094851b6001600160601b03199081166101005293851b9093166101205290911b6001600160e01b03191660a0525030901b6101405250620002e79c50505050505050505050505050565b6bffffffff0000000000000000604084901b1667ffffffff00000000602084901b161763ffffffff8216179392505050565b600080600080600060a086880312156200021b578081fd5b85516200022881620002ce565b60208701519095506200023b81620002ce565b60408701519094506200024e81620002ce565b60608701519093506200026181620002ce565b608087015190925063ffffffff811681146200027b578182fd5b809150509295509295909350565b6000602082840312156200029b578081fd5b5051919050565b9485526020850193909352604084019190915260608301526001600160a01b0316608082015260a00190565b6001600160a01b0381168114620002e457600080fd5b50565b60805160a05160e01c60c05160601c60e0516101005160601c6101205160601c6101405160601c610160516149eb62000368600039806106da525080612810525080611f42525080611e8652508061321c525080611df952806131fb525080610b1c528061107752806131cf5250806116b952806119bc52506149eb6000f3fe60806040526004361061020f5760003560e01c80639a4f809c11610118578063b4658bfb116100a0578063ea7faa611161006f578063ea7faa611461062a578063f6274f661461064a578063f6e0f6a51461065d578063fd5f995b1461067d578063fe55a3ef1461069d5761020f565b8063b4658bfb146105b5578063d0a55fb0146105d5578063dab400f3146105f5578063dd11d2251461060a5761020f565b8063aa6b21cd116100e7578063aa6b21cd14610506578063aa77476c14610526578063ad354eeb14610546578063b09f1fb114610575578063b10a33f4146105955761020f565b80639a4f809c146104915780639baa45a8146104b15780639f0434f5146104d1578063a0edcef5146104f15761020f565b8063487b5c201161019b57806386a0c8d71161016a57806386a0c8d7146103fc5780638fd3ab801461041c5780639240529c1461043e578063935c82a41461045157806395480889146104715761020f565b8063487b5c201461036b5780636ae4b4f71461038d5780636b52a4a8146103af5780637d49ec1a146103dc5761020f565b8063346693c5116101e2578063346693c5146102b057806337f381d8146102dd5780633cd2f026146102fd578063414e4ccf1461031d578063438cdfc51461033e5761020f565b8063016a6d6514610214578063031b905c1461024a5780630f0e8cf71461025f5780631fb0979514610281575b600080fd5b34801561022057600080fd5b5061023461022f366004613e6f565b6106bd565b60405161024191906142a7565b60405180910390f35b34801561025657600080fd5b506102346106d8565b34801561026b57600080fd5b5061027f61027a3660046139e3565b6106fc565b005b34801561028d57600080fd5b506102a161029c366004613cf7565b610792565b60405161024193929190614773565b3480156102bc57600080fd5b506102d06102cb366004613e6f565b610864565b6040516102419190614765565b3480156102e957600080fd5b506102a16102f8366004613e8b565b610902565b34801561030957600080fd5b5061027f610318366004613975565b6109bc565b61033061032b366004613d83565b6109ef565b6040516102419291906148ac565b34801561034a57600080fd5b5061035e610359366004613ec1565b610a76565b6040516102419190614898565b34801561037757600080fd5b50610380610b1a565b60405161024191906148d4565b34801561039957600080fd5b506103a2610b3e565b6040516102419190614461565b3480156103bb57600080fd5b506103cf6103ca36600461377c565b610b65565b604051610241919061429c565b3480156103e857600080fd5b5061027f6103f7366004613cdb565b610ba6565b34801561040857600080fd5b5061027f6104173660046139e3565b610c0d565b34801561042857600080fd5b50610431610c94565b60405161024191906143e3565b61035e61044c366004613d38565b610e92565b34801561045d57600080fd5b5061027f61046c366004613877565b610f20565b34801561047d57600080fd5b506102d061048c366004613cdb565b610f47565b34801561049d57600080fd5b5061027f6104ac366004613c9b565b610fc5565b3480156104bd57600080fd5b5061027f6104cc366004613af0565b610fd1565b3480156104dd57600080fd5b5061027f6104ec3660046137b4565b611001565b3480156104fd57600080fd5b50610380611075565b34801561051257600080fd5b50610330610521366004613f01565b611099565b34801561053257600080fd5b50610330610541366004613ec1565b611124565b34801561055257600080fd5b50610566610561366004613b8e565b611189565b604051610241939291906141fe565b34801561058157600080fd5b5061027f6105903660046138c7565b6113a2565b3480156105a157600080fd5b5061027f6105b0366004613877565b611476565b3480156105c157600080fd5b506105666105d0366004613a5c565b61149d565b3480156105e157600080fd5b5061027f6105f0366004613c9b565b6116ab565b34801561060157600080fd5b506102346116b7565b34801561061657600080fd5b50610234610625366004613cdb565b6116db565b34801561063657600080fd5b5061027f61064536600461384a565b6116e9565b610330610658366004613d38565b61175a565b34801561066957600080fd5b5061027f610678366004613bef565b6117d5565b34801561068957600080fd5b5061027f6106983660046137b4565b611805565b3480156106a957600080fd5b5061027f6106b8366004613e6f565b611872565b60006106d06106cb836118d5565b6119b8565b90505b919050565b7f000000000000000000000000000000000000000000000000000000000000000081565b8151835114801561070e575080518351145b6107335760405162461bcd60e51b815260040161072a90614547565b60405180910390fd5b60005b835181101561078c576107843385838151811061074f57fe5b602002602001015185848151811061076357fe5b602002602001015185858151811061077757fe5b6020026020010151611a0a565b600101610736565b50505050565b61079a6133c2565b6000806107a685610f47565b925061080b6040518060a001604052808760a001516001600160a01b0316815260200187600001516001600160a01b0316815260200187604001516001600160801b0316815260200187606001516001600160801b0316815260200185815250611ad8565b835190925060009061082b9061082636889003880188613f86565b611bc2565b9050806001600160a01b03168660a001516001600160a01b0316148061085a575061085a8660a0015182610b65565b9150509250925092565b61086c6133c2565b610875826106bd565b81526000610881611d06565b60808401516001600160a01b03908116600090815260029290920160209081526040808420875184168552825280842082880151909316845291905290205460608401516101008501516101208601519293506108e2928592919085611d13565b60c08301516001600160a01b03166108fc57600060208301525b50919050565b61090a6133c2565b60008061091685610864565b925061097b6040518060a0016040528087608001516001600160a01b0316815260200187600001516001600160a01b0316815260200187604001516001600160801b0316815260200187606001516001600160801b0316815260200185815250611ad8565b9150600061098d846000015186611bc2565b9050806001600160a01b031686608001516001600160a01b0316148061085a575061085a866080015182610b65565b60005b818110156109ea576109e28383838181106109d657fe5b90506020020135611ddf565b6001016109bf565b505050565b600080333014610a0a57610a0a610a0533611fb6565b612023565b610a126133e4565b610a5c6040518060a001604052808a8152602001898152602001886001600160801b03168152602001876001600160a01b03168152602001866001600160a01b031681525061202b565b602081015160409091015190999098509650505050505050565b6000610a806133e4565b6040805160c081018252868152602081018690526001600160801b0385169181019190915233606082018190526000608083015260a0820152610ac290612353565b9050826001600160801b031681602001516001600160801b03161015610b0e57610b0e610a05610af1876106bd565b83602001516001600160801b0316866001600160801b0316612633565b60400151949350505050565b7f000000000000000000000000000000000000000000000000000000000000000090565b6040518060400160405280600b81526020016a4c696d69744f726465727360a81b81525081565b6000610b6f611d06565b6001600160a01b03808516600090815260049290920160209081526040808420928616845291905290205460ff1690505b92915050565b6000610bb1826116db565b90508160a001516001600160a01b0316336001600160a01b031614158015610be45750610be28260a0015133610b65565b155b15610bfb57610bfb610a0582338560a001516126a6565b610c09818360a001516126de565b5050565b81518351148015610c1f575080518351145b610c3b5760405162461bcd60e51b815260040161072a90614547565b60005b835181101561078c57610c8c33858381518110610c5757fe5b6020026020010151858481518110610c6b57fe5b6020026020010151858581518110610c7f57fe5b6020026020010151612735565b600101610c3e565b6000610ca6631e69781360e11b6127f3565b610cb6637b13a7b360e11b6127f3565b610cc6632a9dd1db60e21b6127f3565b610cd663249014a760e21b6127f3565b610ce663438cdfc560e01b6127f3565b610cf663414e4ccf60e01b6127f3565b610d0663aa6b21cd60e01b6127f3565b610d16633ea4f60d60e11b6127f3565b610d2663fe55a3ef60e01b6127f3565b610d3663137548b560e31b6127f3565b610d4663f6e0f6a560e01b6127f3565b610d56630d0a55fb60e41b6127f3565b610d66632c428cfd60e21b6127f3565b610d766386a0c8d760e01b6127f3565b610d86639f0434f560e01b6127f3565b610d96632693e02760e21b6127f3565b610da66324d720a960e21b6127f3565b610db6630f0e8cf760e01b6127f3565b610dc663fd5f995b60e01b6127f3565b610dd6639548088960e01b6127f3565b610de663346693c560e01b6127f3565b610df663dd11d22560e01b6127f3565b610e0663016a6d6560e01b6127f3565b610e16630243dae160e51b6127f3565b610e2663b09f1fb160e01b6127f3565b610e36631fb0979560e01b6127f3565b610e466306fe703b60e31b6127f3565b610e5663b4658bfb60e01b6127f3565b610e6663ad354eeb60e01b6127f3565b610e7663ea7faa6160e01b6127f3565b610e86630d6a549560e31b6127f3565b50632c64c5ef60e01b90565b6000610e9c6133e4565b610ee66040518060a00160405280878152602001868152602001856001600160801b03168152602001336001600160a01b03168152602001336001600160a01b031681525061202b565b9050826001600160801b031681602001516001600160801b03161015610f1557610f15610a05610af1876116db565b8051610b0e90612866565b610f2a8433610b65565b610f3b57610f3b610a0585336128fc565b61078c84848484611a0a565b610f4f6133c2565b610f58826116db565b81526000610f64611d06565b60a08401516001600160a01b03908116600090815260019290920160209081526040808420875184168552825280842082880151909316845291905290205460608401516101408501516101608601519293506108fc928592919085611d13565b6109ea33848484611a0a565b60005b8151811015610c0957610ff9828281518110610fec57fe5b6020026020010151610ba6565b600101610fd4565b81518351148015611013575080518351145b61102f5760405162461bcd60e51b815260040161072a90614547565b6110398433610b65565b61104a5761104a610a0585336128fc565b60005b835181101561106e5761106685858381518110610c5757fe5b60010161104d565b5050505050565b7f000000000000000000000000000000000000000000000000000000000000000081565b6000803330146110af576110af610a0533611fb6565b6110b76133e4565b6111096040518060c001604052808b81526020018a8152602001896001600160801b03168152602001886001600160a01b031681526020018715158152602001866001600160a01b0316815250612353565b6020810151604090910151909a909950975050505050505050565b60008061112f6133e4565b6040805160c081018252878152602081018790526001600160801b0386169181019190915233606082018190526000608083015260a082015261117190612353565b60208101516040909101519097909650945050505050565b606080808584146111ac5760405162461bcd60e51b815260040161072a906144b4565b856001600160401b03811180156111c257600080fd5b506040519080825280602002602001820160405280156111fc57816020015b6111e96133c2565b8152602001906001900390816111e15790505b509250856001600160401b038111801561121557600080fd5b5060405190808252806020026020018201604052801561123f578160200160208202803683370190505b509150856001600160401b038111801561125857600080fd5b50604051908082528060200260200182016040528015611282578160200160208202803683370190505b50905060005b8681101561139757306337f381d88989848181106112a257fe5b905061014002018888858181106112b557fe5b9050608002016040518363ffffffff1660e01b81526004016112d89291906147a0565b60a06040518083038186803b1580156112f057600080fd5b505afa925050508015611320575060408051601f3d908101601f1916820190925261131d91810190613df6565b60015b6113295761138f565b8287858151811061133657fe5b60200260200101819052508186858151811061134e57fe5b60200260200101906001600160801b031690816001600160801b0316815250508085858151811061137b57fe5b911515602092830291909101909101525050505b600101611288565b509450945094915050565b3332146113c15760405162461bcd60e51b815260040161072a90614500565b60006113cb611d06565b905060005b835181101561143557336000908152600383016020526040812085518592908790859081106113fb57fe5b6020908102919091018101516001600160a01b03168252810191909152604001600020805460ff19169115159190911790556001016113d0565b507f02dfead5eb769b298e82dd9650b31c40559a3d42701dbf53c931bc2682847c313384846040516114699392919061413a565b60405180910390a1505050565b6114808433610b65565b61149157611491610a0585336128fc565b61078c84848484612735565b606080808584146114c05760405162461bcd60e51b815260040161072a906144b4565b856001600160401b03811180156114d657600080fd5b5060405190808252806020026020018201604052801561151057816020015b6114fd6133c2565b8152602001906001900390816114f55790505b509250856001600160401b038111801561152957600080fd5b50604051908082528060200260200182016040528015611553578160200160208202803683370190505b509150856001600160401b038111801561156c57600080fd5b50604051908082528060200260200182016040528015611596578160200160208202803683370190505b50905060005b868110156113975730631fb097958989848181106115b657fe5b905061018002018888858181106115c957fe5b9050608002016040518363ffffffff1660e01b81526004016115ec92919061462f565b60a06040518083038186803b15801561160457600080fd5b505afa925050508015611634575060408051601f3d908101601f1916820190925261163191810190613df6565b60015b61163d576116a3565b8287858151811061164a57fe5b60200260200101819052508186858151811061166257fe5b60200260200101906001600160801b031690816001600160801b0316815250508085858151811061168f57fe5b911515602092830291909101909101525050505b60010161159c565b6109ea33848484612735565b7f000000000000000000000000000000000000000000000000000000000000000081565b60006106d06106cb8361296c565b60006116f3611d06565b33600081815260048301602090815260408083206001600160a01b038916845290915290819020805460ff1916861515179055519192507f6ea9dbe8b2cc119348716a9220a0742ad62b7884ecb0ff4b32cd508121fd937991611469919086908690614116565b6000806117656133e4565b6117af6040518060a00160405280888152602001878152602001866001600160801b03168152602001336001600160a01b03168152602001336001600160a01b031681525061202b565b90506117be8160000151612866565b602081015160409091015190969095509350505050565b60005b8151811015610c09576117fd8282815181106117f057fe5b6020026020010151611872565b6001016117d8565b81518351148015611817575080518351145b6118335760405162461bcd60e51b815260040161072a90614547565b61183d8433610b65565b61184e5761184e610a0585336128fc565b60005b835181101561106e5761186a8585838151811061074f57fe5b600101611851565b600061187d826106bd565b905081608001516001600160a01b0316336001600160a01b0316141580156118b057506118ae826080015133610b65565b155b156118c7576118c7610a05823385608001516126a6565b610c098183608001516126de565b60006040517fe593d3fdfa8b60e5e17a1b2204662ecbe15c23f2084b9ad5bae40359540a7da9815282516001600160a01b0316602082015260208301516001600160a01b0316604082015260408301516001600160801b0316606082015260608301516001600160801b0316608082015260808301516001600160a01b031660a082015260a08301516001600160a01b031660c082015260c08301516001600160a01b031660e082015260e08301516101008201526101008301516001600160401b03166101208201526101208301516101408201526101608120915050919050565b60007f0000000000000000000000000000000000000000000000000000000000000000826040516020016119ed9291906140c0565b604051602081830303815290604052805190602001209050919050565b6000611a14611d06565b6001600160a01b0380871660009081526002830160209081526040808320898516845282528083209388168352929052205490915082811115611a5e57611a5e610a058483612a79565b6001600160a01b0380871660009081526002840160209081526040808320898516845282528083209388168352929052819020849055517ffe7ffb1edfe79f4df716cb2dcad21cf2f31b104d816a7976ba1e6e4653c1efb190611ac89088908890889088906141bb565b60405180910390a1505050505050565b600081604001516001600160801b031660001480611b01575060608201516001600160801b0316155b15611b0e575060006106d3565b60018260800151602001516004811115611b2457fe5b14611b31575060006106d3565b6000611b6f8360800151604001518460600151036001600160801b031684606001516001600160801b031685604001516001600160801b0316612aaf565b9050611b8c81611b8785602001518660000151612acd565b612bcc565b9050611bbb611bb68285604001516001600160801b031686606001516001600160801b0316612be2565b612c06565b9392505050565b6000611bce8383612c29565b600282516004811115611bdd57fe5b1415611c455760018383602001518460400151856060015160405160008152602001604052604051611c1294939291906143c5565b6020604051602081039080840390855afa158015611c34573d6000803e3d6000fd5b505050602060405103519050611cea565b600382516004811115611c5457fe5b1415611cea5760007f19457468657265756d205369676e6564204d6573736167653a0a33320000000060005283601c52603c600020905060018184602001518560400151866060015160405160008152602001604052604051611cba94939291906143c5565b6020604051602081039080840390855afa158015611cdc573d6000803e3d6000fd5b505050602060405103519150505b6001600160a01b038116610ba057610ba0610a05600585612cea565b600080610ba06007612d20565b6000611d1d611d06565b865160009081526020829052604090819020546001600160801b03808216928a0183905292935091871611611d6b576020870160025b90816004811115611d6057fe5b81525050505061106e565b600160ff1b811615611d8257602087016003611d53565b50426001600160401b0316846001600160401b031611611dba576020860160045b90816004811115611db057fe5b815250505061106e565b82821115611dcd57602086016003611da3565b60016020870181905250505050505050565b6040516318cdf6cd60e11b81526000906001600160a01b037f0000000000000000000000000000000000000000000000000000000000000000169063319bed9a90611e2e9085906004016142a7565b602060405180830381600087803b158015611e4857600080fd5b505af1158015611e5c573d6000803e3d6000fd5b505050506040513d601f19601f82011682018060405250810190611e809190613c7f565b905060007f00000000000000000000000000000000000000000000000000000000000000006001600160a01b03166370a08231836040518263ffffffff1660e01b8152600401611ed091906140de565b60206040518083038186803b158015611ee857600080fd5b505afa158015611efc573d6000803e3d6000fd5b505050506040513d601f19601f82011682018060405250810190611f209190613fa1565b905060018111156109ea5760405163a3b4a32760e01b81526001600160a01b037f0000000000000000000000000000000000000000000000000000000000000000169063a3b4a32790611f7f90859081906000198701906004016140f2565b600060405180830381600087803b158015611f9957600080fd5b505af1158015611fad573d6000803e3d6000fd5b50505050505050565b60607ff0ec779b0bcda6d84abf99ee2c67647d1100ebbb553a9c2d1c2ba1579592832c82604051602401611fea91906140de565b60408051601f198184030181529190526020810180516001600160e01b03166001600160e01b0319909316929092179091529050919050565b805160208201fd5b6120336133e4565b61203b6133c2565b825161204690610f47565b905060018160200151600481111561205a57fe5b1461207f5761207f610a0582600001518360200151600481111561207a57fe5b612d3b565b825160c001516001600160a01b0316158015906120ba575082606001516001600160a01b0316836000015160c001516001600160a01b031614155b156120dd576120dd610a0582600001518560600151866000015160c00151612d71565b825160e001516001600160a01b031615801590612118575082608001516001600160a01b0316836000015160e001516001600160a01b031614155b1561213b5761213b610a0582600001518560800151866000015160e00151612da9565b600061214f82600001518560200151611bc2565b9050836000015160a001516001600160a01b0316816001600160a01b0316141580156121885750835160a001516121869082610b65565b155b156121a4578151845160a001516121a491610a05918490612de1565b50825161012001516121b590612e19565b8252604080516101408101825282518152845160a0908101516001600160a01b039081166020808501919091526060808901805184168688015251831681860152885151831660808601528851909101519091169183019190915285518301516001600160801b0390811660c0840152865190910151811660e08301528583015181166101008301529183015190911661012082015261225490612ec7565b6001600160801b039081166040850152908116602084015283516080015116156122de576122b282602001516001600160801b03168460000151606001516001600160801b03168560000151608001516001600160801b0316612aaf565b6001600160801b031660608084018290528451602081015191860151610100909101516122de93613018565b8051835160a08101516060808701516101008401518451602080870151908a01516040808c0151968c01518c51610120909a015191517fab614d2b738543c0ea21f56347cf696a3a0c42a7cbec3212a5ca22a4dcff21249b6123459b909a999390916142e6565b60405180910390a150919050565b61235b6133e4565b6123636133c2565b825161236e90610864565b905060018160200151600481111561238257fe5b146123a2576123a2610a0582600001518360200151600481111561207a57fe5b60006123ac611d06565b845160c001519091506001600160a01b031632148015906123f85750835160c001516001600160a01b03166000908152600382016020908152604080832032845290915290205460ff16155b15612414578151845160c0015161241491610a059132906130a7565b50825160a001516001600160a01b031615801590612450575082606001516001600160a01b0316836000015160a001516001600160a01b031614155b1561247357612473610a0582600001518560600151866000015160a00151612d71565b600061248782600001518560200151611bc2565b90508360000151608001516001600160a01b0316816001600160a01b0316141580156124c057508351608001516124be9082610b65565b155b156124dc5781518451608001516124dc91610a05918490612de1565b5060408051610140810182528251815284516080908101516001600160a01b031660208301528501516125c29282019061251a57856060015161251c565b305b6001600160a01b031681526020018560a001516001600160a01b031681526020018560000151600001516001600160a01b031681526020018560000151602001516001600160a01b031681526020018560000151604001516001600160801b031681526020018560000151606001516001600160801b0316815260200185604001516001600160801b0316815260200183604001516001600160801b0316815250612ec7565b6001600160801b03908116604080860182905292909116602080860182905284518751608081015160608a015182519483015160e09093015197517f829fa99d94dc4636925b38632e625736a614c154d55006b7ab6bea979c210c3298612345989597939692959294939291614350565b60607f21948612b5ef214ec0508df4901600e07a810a371be76b25d59ade73826e3d9784848460405160240161266b9392919061439e565b60408051601f198184030181529190526020810180516001600160e01b03166001600160e01b03199093169290921790915290509392505050565b60607f88b2c08e4a5f57d416ad23dad18c20497ccfe684b1379b28fd564adaf582b80f84848460405160240161266b939291906142c7565b60006126e8611d06565b600084815260208290526040908190208054600160ff1b179055519091507fa6eb7cdc219e1518ced964e9a34e61d68a94e4f1569db3e84256ba981ba527539061146990859085906142b0565b600061273f611d06565b6001600160a01b038087166000908152600183016020908152604080832089851684528252808320938816835292905220549091508281111561278957612789610a058483612a79565b6001600160a01b0380871660009081526001840160209081526040808320898516845282528083209388168352929052819020849055517fa91fe7ae62fce669df2c7f880f8c14d178531aae72515558e5c948e37c32a57290611ac89088908890889088906141bb565b604051636eb224cb60e01b81523090636eb224cb906128389084907f0000000000000000000000000000000000000000000000000000000000000000906004016143f8565b600060405180830381600087803b15801561285257600080fd5b505af115801561106e573d6000803e3d6000fd5b80341180156128755750333014155b156128f957600061288634836130df565b90506000336001600160a01b0316826040516128a1906140db565b60006040518083038185875af1925050503d80600081146128de576040519150601f19603f3d011682016040523d82523d6000602084013e6128e3565b606091505b50509050806109ea576109ea610a0533846130fe565b50565b60607f84356db366796dc6e2aeb1ad74b631fe4e5ec6a650464da6059e9f95c8810a1083836040516024016129329291906141a1565b60408051601f198184030181529190526020810180516001600160e01b03166001600160e01b031990931692909217909152905092915050565b60006040517fce918627cb55462ddbb85e73de69a8b322f2bc88f4507c52fcad6d4c33c29d49815282516001600160a01b0316602082015260208301516001600160a01b0316604082015260408301516001600160801b0316606082015260608301516001600160801b0316608082015260808301516001600160801b031660a082015260a08301516001600160a01b031660c082015260c08301516001600160a01b031660e082015260e08301516001600160a01b03166101008201526101008301516001600160a01b03166101208201526101208301516101408201526101408301516001600160401b03166101608201526101608301516101808201526101a08120915050919050565b60607fb12bc7e7d341f4431d6faf05f991ee3b779183e341b24243064e10c886cd187383836040516024016129329291906148c6565b6000612ac583612abf8685613134565b90613165565b949350505050565b6000611bbb836001600160a01b031663dd62ed3e84306040518363ffffffff1660e01b8152600401612b009291906141a1565b60206040518083038186803b158015612b1857600080fd5b505afa158015612b2c573d6000803e3d6000fd5b505050506040513d601f19601f82011682018060405250810190612b509190613fa1565b6040516370a0823160e01b81526001600160a01b038616906370a0823190612b7c9087906004016140de565b60206040518083038186803b158015612b9457600080fd5b505afa158015612ba8573d6000803e3d6000fd5b505050506040513d601f19601f82011682018060405250810190611b879190613fa1565b6000818310612bdb5781611bbb565b5090919050565b6000612ac583612abf612bf68260016130df565b612c008887613134565b9061318f565b60006001600160801b03821115612c2557612c25610a056003846131ab565b5090565b604081015170014551231950b75fc4402da1732fc9bebe19111580612c72575060608101517f7fffffffffffffffffffffffffffffff5d576e7357a4501ddfe92f46681b20a111155b15612c8557612c85610a05600584612cea565b600081516004811115612c9457fe5b1415612ca857612ca8610a05600384612cea565b600181516004811115612cb757fe5b1415612ccb57612ccb610a05600084612cea565b600481516004811115612cda57fe5b1415610c0957610c09610a056002845b60607ff18f11f3027e735c758137924b262d4d3aff0037dcd785aca3c699fa05d960bd8383604051602401612932929190614453565b6000608082600b811115612d3057fe5b600101901b92915050565b60607f47ab394e41470191eaf9fa542e84ac483a12665fbd616eb8d1c022ced6c9400083836040516024016129329291906143b4565b60607f5d3300180a4547b3e27137be832d3ebf56f1ba5ebb30dd580999c61f77fa639684848460405160240161266b939291906142c7565b60607f15e6a383bb02d79ee933b927fbecba78cdde16cba84b94a99661f44bcce3b73684848460405160240161266b939291906142c7565b60607ff13e65d925201525f3d71a731833b19bb26e44cfbd97caf72a366b73866f712484848460405160240161266b939291906142c7565b600080612e246131c8565b905080612e355760009150506106d3565b6000612e40846131f4565b90506000816001600160a01b031683604051612e5b906140db565b60006040518083038185875af1925050503d8060008114612e98576040519150601f19603f3d011682016040523d82523d6000602084013e612e9d565b606091505b5050905080612ebe5760405162461bcd60e51b815260040161072a906145e8565b50909392505050565b600080612efd836101000151612ef88561012001518660e001516001600160801b031661324190919063ffffffff16565b61327e565b9150612f2d826001600160801b03168460e001516001600160801b03168560c001516001600160801b0316612aaf565b90506001600160801b0382161580612f4c57506001600160801b038116155b15612f5c57506000905080613013565b610120830151612f75906001600160801b03168361329f565b6001600160801b0316612f86611d06565b84516000908152602091909152604090819020919091558301516001600160a01b0316301415612fd157612fcc8360a001518460200151846001600160801b03166132d9565b612ff2565b612ff28360a0015184604001518560200151856001600160801b0316613018565b613013836080015184602001518560600151846001600160801b0316613018565b915091565b6001600160a01b0384163014156130415760405162461bcd60e51b815260040161072a906145a4565b6040516323b872dd60e01b81526001600160a01b03841660048201526001600160a01b038316602482015281604482015260208160648360006001600160a01b038a165af13d60018351146020821015168115178216915081611fad57806000843e8083fd5b60607fc0972f3cc4234ca2091de7e7bc7081494bd29ac280167d66f0d44168973b163484848460405160240161266b939291906142c7565b6000828211156130f8576130f8610a0560028585613361565b50900390565b60607fbde95cc2119e0200d80642397198abfcf98e6e4dddd0de9c6320d86252ad40ab83836040516024016129329291906141e5565b60008261314357506000610ba0565b8282028284828161315057fe5b0414611bbb57611bbb610a0560018686613361565b60008161317b5761317b610a0560038585613361565b600082848161318657fe5b04949350505050565b600082820183811015611bbb57611bbb610a0560008686613361565b606063c996af7b60e01b838360405160240161293292919061443c565b63ffffffff7f0000000000000000000000000000000000000000000000000000000000000000163a0290565b60006106d07f00000000000000000000000000000000000000000000000000000000000000007f000000000000000000000000000000000000000000000000000000000000000084613380565b6000826001600160801b0316826001600160801b031611156130f8576130f8610a056002856001600160801b0316856001600160801b0316613361565b6000816001600160801b0316836001600160801b031610612bdb5781611bbb565b60008282016001600160801b038085169082161015611bbb57611bbb610a056000866001600160801b0316866001600160801b0316613361565b6001600160a01b0383163014156133025760405162461bcd60e51b815260040161072a906145a4565b60405163a9059cbb60e01b81526001600160a01b038316600482015281602482015260208160448360006001600160a01b0389165af13d6001835114602082101516811517821691508161335957806000843e8083fd5b505050505050565b606063e946c1bb60e01b84848460405160240161266b9392919061441b565b6040516000906133a2906001600160f81b031990869085908790602001614087565b60408051601f198184030181529190528051602090910120949350505050565b6040805160608101909152600080825260208201908152600060209091015290565b60408051608081018252600080825260208201819052918101829052606081019190915290565b8035610ba081614970565b600082601f830112613426578081fd5b81356134396134348261490b565b6148e5565b81815291506020808301908481018184028601820187101561345a57600080fd5b60005b8481101561348257813561347081614970565b8452928201929082019060010161345d565b505050505092915050565b60008083601f84011261349e578182fd5b5081356001600160401b038111156134b4578182fd5b6020830191508360206080830285010111156134cf57600080fd5b9250929050565b600082601f8301126134e6578081fd5b81356134f46134348261490b565b81815291506020808301908481018184028601820187101561351557600080fd5b60005b8481101561348257813584529282019290820190600101613518565b8035610ba081614985565b6000610180808385031215613552578182fd5b61355b816148e5565b915050613568838361340b565b8152613577836020840161340b565b60208201526135898360408401613749565b604082015261359b8360608401613749565b60608201526135ad8360808401613749565b60808201526135bf8360a0840161340b565b60a08201526135d18360c0840161340b565b60c08201526135e38360e0840161340b565b60e08201526101006135f78482850161340b565b90820152610120828101359082015261014061361584828501613754565b818301525061016080830135818301525092915050565b600061014080838503121561363f578182fd5b613648816148e5565b915050613655838361340b565b8152613664836020840161340b565b60208201526136768360408401613749565b60408201526136888360608401613749565b606082015261369a836080840161340b565b60808201526136ac8360a0840161340b565b60a08201526136be8360c0840161340b565b60c082015260e082013560e08201526101006136dc84828501613754565b818301525061012080830135818301525092915050565b600060808284031215613704578081fd5b61370e60806148e5565b9050813561371b81614993565b815261372a836020840161376b565b6020820152604082013560408201526060820135606082015292915050565b8035610ba0816149a0565b80356001600160401b0381168114610ba057600080fd5b803560ff81168114610ba057600080fd5b6000806040838503121561378e578182fd5b823561379981614970565b915060208301356137a981614970565b809150509250929050565b600080600080608085870312156137c9578182fd5b84356137d481614970565b935060208501356001600160401b03808211156137ef578384fd5b6137fb88838901613416565b94506040870135915080821115613810578384fd5b61381c88838901613416565b93506060870135915080821115613831578283fd5b5061383e878288016134d6565b91505092959194509250565b6000806040838503121561385c578182fd5b823561386781614970565b915060208301356137a981614985565b6000806000806080858703121561388c578182fd5b843561389781614970565b935060208501356138a781614970565b925060408501356138b781614970565b9396929550929360600135925050565b600080604083850312156138d9578182fd5b82356001600160401b038111156138ee578283fd5b8301601f810185136138fe578283fd5b803561390c6134348261490b565b80828252602080830192508085018982838702880101111561392c578788fd5b8795505b8486101561395757803561394381614970565b845260019590950194928101928101613930565b5081965061396789828a01613534565b955050505050509250929050565b60008060208385031215613987578182fd5b82356001600160401b038082111561399d578384fd5b818501915085601f8301126139b0578384fd5b8135818111156139be578485fd5b86602080830285010111156139d1578485fd5b60209290920196919550909350505050565b6000806000606084860312156139f7578081fd5b83356001600160401b0380821115613a0d578283fd5b613a1987838801613416565b94506020860135915080821115613a2e578283fd5b613a3a87838801613416565b93506040860135915080821115613a4f578283fd5b5061085a868287016134d6565b60008060008060408587031215613a71578182fd5b84356001600160401b0380821115613a87578384fd5b818701915087601f830112613a9a578384fd5b813581811115613aa8578485fd5b88602061018083028501011115613abd578485fd5b602092830196509450908601359080821115613ad7578384fd5b50613ae48782880161348d565b95989497509550505050565b60006020808385031215613b02578182fd5b82356001600160401b03811115613b17578283fd5b8301601f81018513613b27578283fd5b8035613b356134348261490b565b81815283810190838501610180808502860187018a1015613b54578788fd5b8795505b84861015613b8057613b6a8a8361353f565b8452600195909501949286019290810190613b58565b509098975050505050505050565b60008060008060408587031215613ba3578182fd5b84356001600160401b0380821115613bb9578384fd5b818701915087601f830112613bcc578384fd5b813581811115613bda578485fd5b88602061014083028501011115613abd578485fd5b60006020808385031215613c01578182fd5b82356001600160401b03811115613c16578283fd5b8301601f81018513613c26578283fd5b8035613c346134348261490b565b81815283810190838501610140808502860187018a1015613c53578788fd5b8795505b84861015613b8057613c698a8361362c565b8452600195909501949286019290810190613c57565b600060208284031215613c90578081fd5b8151611bbb81614970565b600080600060608486031215613caf578081fd5b8335613cba81614970565b92506020840135613cca81614970565b929592945050506040919091013590565b60006101808284031215613ced578081fd5b611bbb838361353f565b600080828403610200811215613d0b578283fd5b613d15858561353f565b9250608061017f1982011215613d29578182fd5b50610180830190509250929050565b60008060006102208486031215613d4d578081fd5b613d57858561353f565b9250613d678561018086016136f3565b9150610200840135613d78816149a0565b809150509250925092565b60008060008060006102608688031215613d9b578283fd5b613da5878761353f565b9450613db58761018088016136f3565b9350610200860135613dc6816149a0565b9250610220860135613dd781614970565b9150610240860135613de881614970565b809150509295509295909350565b600080600083850360a0811215613e0b578182fd5b6060811215613e18578182fd5b50613e2360606148e5565b845181526020850151613e3581614993565b60208201526040850151613e48816149a0565b60408201526060850151909350613e5e816149a0565b6080850151909250613d7881614985565b60006101408284031215613e81578081fd5b611bbb838361362c565b6000806101c08385031215613e9e578182fd5b613ea8848461362c565b9150613eb88461014085016136f3565b90509250929050565b60008060006101e08486031215613ed6578081fd5b613ee0858561362c565b9250613ef08561014086016136f3565b91506101c0840135613d78816149a0565b6000806000806000806102408789031215613f1a578384fd5b613f24888861362c565b9550613f348861014089016136f3565b94506101c0870135613f45816149a0565b93506101e0870135613f5681614970565b9250610200870135613f6781614985565b9150610220870135613f7881614970565b809150509295509295509295565b600060808284031215613f97578081fd5b611bbb83836136f3565b600060208284031215613fb2578081fd5b5051919050565b6001600160a01b03169052565b6000815180845260208085019450808401835b83811015613ff7578151151587529582019590820190600101613fd9565b509495945050505050565b80518252602081015161401481614966565b60208301526040908101516001600160801b0316910152565b803561403881614993565b61404181614966565b82526040810160ff614056826020850161376b565b166020840152356040830152606090810135910152565b6001600160801b03169052565b6001600160401b03169052565b6001600160f81b031994909416845260609290921b6bffffffffffffffffffffffff191660018401526015830152603582015260550190565b61190160f01b81526002810192909252602282015260420190565b90565b6001600160a01b0391909116815260200190565b6001600160a01b039384168152919092166020820152604081019190915260600190565b6001600160a01b039384168152919092166020820152901515604082015260600190565b6001600160a01b038481168252606060208084018290528551918401829052600092868201929091906080860190855b8181101561418857855185168352948301949183019160010161416a565b5050809450505050508215156040830152949350505050565b6001600160a01b0392831681529116602082015260400190565b6001600160a01b039485168152928416602084015292166040820152606081019190915260800190565b6001600160a01b03929092168252602082015260400190565b60608082528451828201819052600091906020906080850190828901855b8281101561423f5761422f848351614002565b928501929084019060010161421c565b505050848103828601528651808252908201925086820190845b8181101561427c5761426c85845161406d565b9383019391830191600101614259565b5050505082810360408401526142928185613fc6565b9695505050505050565b901515815260200190565b90815260200190565b9182526001600160a01b0316602082015260400190565b9283526001600160a01b03918216602084015216604082015260600190565b9a8b526001600160a01b03998a1660208c015297891660408b015295881660608a015293871660808901529190951660a08701526001600160801b0394851660c0870152841660e08601529092166101008401526101208301919091526101408201526101600190565b9788526001600160a01b03968716602089015294861660408801529285166060870152931660808501526001600160801b0392831660a085015290911660c083015260e08201526101000190565b9283526020830191909152604082015260600190565b91825260ff16602082015260400190565b93845260ff9290921660208401526040830152606082015260800190565b6001600160e01b031991909116815260200190565b6001600160e01b03199290921682526001600160a01b0316602082015260400190565b606081016144288561495c565b938152602081019290925260409091015290565b604081016144498461495c565b9281526020015290565b604081016006841061444957fe5b6000602080835283518082850152825b8181101561448d57858101830151858201604001528201614471565b8181111561449e5783604083870101525b50601f01601f1916929092016040019392505050565b6020808252602c908201527f4e61746976654f7264657273466561747572652f4d49534d4154434845445f4160408201526b525241595f4c454e4754485360a01b606082015260800190565b60208082526027908201527f4e61746976654f7264657273466561747572652f4e4f5f434f4e54524143545f6040820152664f524947494e5360c81b606082015260800190565b60208082526038908201527f4e61746976654f7264657273466561747572652f4d49534d4154434845445f5060408201527f4149525f4f52444552535f41525241595f4c454e475448530000000000000000606082015260800190565b60208082526024908201527f466978696e546f6b656e5370656e6465722f43414e4e4f545f494e564f4b455f60408201526329a2a62360e11b606082015260800190565b60208082526027908201527f466978696e50726f746f636f6c466565732f45544845525f5452414e5346455260408201526617d1905312515160ca1b606082015260800190565b61020081016020840161464b83614646838861340b565b613fb9565b614655818661492a565b90506146646020840182613fb9565b506146726040850185614937565b61467f604084018261406d565b5061468d6060850185614937565b61469a606084018261406d565b506146a86080850185614937565b6146b5608084018261406d565b506146c360a085018561492a565b6146d060a0840182613fb9565b506146de60c085018561492a565b6146eb60c0840182613fb9565b506146f960e085018561492a565b61470660e0840182613fb9565b506101006147168186018661492a565b61472282850182613fb9565b5050610120848101359083015261014061473e81860186614944565b61474a8285018261407a565b50506101608481013590830152611bbb61018083018461402d565b60608101610ba08284614002565b60a081016147818286614002565b6001600160801b03841660608301528215156080830152949350505050565b6101c08101602084016147b783614646838861340b565b6147c1818661492a565b90506147d06020840182613fb9565b506147de6040850185614937565b6147eb604084018261406d565b506147f96060850185614937565b614806606084018261406d565b50614814608085018561492a565b6148216080840182613fb9565b5061482f60a085018561492a565b61483c60a0840182613fb9565b5061484a60c085018561492a565b61485760c0840182613fb9565b5060e084013560e083015261010061487181860186614944565b61487d8285018261407a565b50506101208481013590830152611bbb61014083018461402d565b6001600160801b0391909116815260200190565b6001600160801b0392831681529116602082015260400190565b918252602082015260400190565b63ffffffff91909116815260200190565b6040518181016001600160401b038111828210171561490357600080fd5b604052919050565b60006001600160401b03821115614920578081fd5b5060209081020190565b60008235611bbb81614970565b60008235611bbb816149a0565b600082356001600160401b0381168114611bbb578182fd5b600481106128f957fe5b600581106128f957fe5b6001600160a01b03811681146128f957600080fd5b80151581146128f957600080fd5b600581106128f957600080fd5b6001600160801b03811681146128f957600080fdfea264697066735822122028ec28f8f299295adcf6daa2a389e9937a003aab6b8f85d6049576654600c1f564736f6c634300060c0033","abi":[{"inputs":[{"internalType":"address","name":"zeroExAddress","type":"address"},{"internalType":"contract IEtherToken","name":"weth","type":"address"},{"internalType":"contract IStaking","name":"staking","type":"address"},{"internalType":"contract FeeCollectorController","name":"feeCollectorController","type":"address"},{"internalType":"uint32","name":"protocolFeeMultiplier","type":"uint32"}],"stateMutability":"nonpayable","type":"constructor"},{"anonymous":false,"inputs":[{"indexed":false,"internalType":"bytes32","name":"orderHash","type":"bytes32"},{"indexed":false,"internalType":"address","name":"maker","type":"address"},{"indexed":false,"internalType":"address","name":"taker","type":"address"},{"indexed":false,"internalType":"address","name":"feeRecipient","type":"address"},{"indexed":false,"internalType":"address","name":"makerToken","type":"address"},{"indexed":false,"internalType":"address","name":"takerToken","type":"address"},{"indexed":false,"internalType":"uint128","name":"takerTokenFilledAmount","type":"uint128"},{"indexed":false,"internalType":"uint128","name":"makerTokenFilledAmount","type":"uint128"},{"indexed":false,"internalType":"uint128","name":"takerTokenFeeFilledAmount","type":"uint128"},{"indexed":false,"internalType":"uint256","name":"protocolFeePaid","type":"uint256"},{"indexed":false,"internalType":"bytes32","name":"pool","type":"bytes32"}],"name":"LimitOrderFilled","type":"event"},{"anonymous":false,"inputs":[{"indexed":false,"internalType":"bytes32","name":"orderHash","type":"bytes32"},{"indexed":false,"internalType":"address","name":"maker","type":"address"}],"name":"OrderCancelled","type":"event"},{"anonymous":false,"inputs":[{"indexed":false,"internalType":"address","name":"maker","type":"address"},{"indexed":false,"internalType":"address","name":"signer","type":"address"},{"indexed":false,"internalType":"bool","name":"allowed","type":"bool"}],"name":"OrderSignerRegistered","type":"event"},{"anonymous":false,"inputs":[{"indexed":false,"internalType":"address","name":"maker","type":"address"},{"indexed":false,"internalType":"address","name":"makerToken","type":"address"},{"indexed":false,"internalType":"address","name":"takerToken","type":"address"},{"indexed":false,"internalType":"uint256","name":"minValidSalt","type":"uint256"}],"name":"PairCancelledLimitOrders","type":"event"},{"anonymous":false,"inputs":[{"indexed":false,"internalType":"address","name":"maker","type":"address"},{"indexed":false,"internalType":"address","name":"makerToken","type":"address"},{"indexed":false,"internalType":"address","name":"takerToken","type":"address"},{"indexed":false,"internalType":"uint256","name":"minValidSalt","type":"uint256"}],"name":"PairCancelledRfqOrders","type":"event"},{"anonymous":false,"inputs":[{"indexed":false,"internalType":"bytes32","name":"orderHash","type":"bytes32"},{"indexed":false,"internalType":"address","name":"maker","type":"address"},{"indexed":false,"internalType":"address","name":"taker","type":"address"},{"indexed":false,"internalType":"address","name":"makerToken","type":"address"},{"indexed":false,"internalType":"address","name":"takerToken","type":"address"},{"indexed":false,"internalType":"uint128","name":"takerTokenFilledAmount","type":"uint128"},{"indexed":false,"internalType":"uint128","name":"makerTokenFilledAmount","type":"uint128"},{"indexed":false,"internalType":"bytes32","name":"pool","type":"bytes32"}],"name":"RfqOrderFilled","type":"event"},{"anonymous":false,"inputs":[{"indexed":false,"internalType":"address","name":"origin","type":"address"},{"indexed":false,"internalType":"address[]","name":"addrs","type":"address[]"},{"indexed":false,"internalType":"bool","name":"allowed","type":"bool"}],"name":"RfqOrderOriginsAllowed","type":"event"},{"inputs":[],"name":"EIP712_DOMAIN_SEPARATOR","outputs":[{"internalType":"bytes32","name":"","type":"bytes32"}],"stateMutability":"view","type":"function"},{"inputs":[],"name":"FEATURE_NAME","outputs":[{"internalType":"string","name":"","type":"string"}],"stateMutability":"view","type":"function"},{"inputs":[],"name":"FEATURE_VERSION","outputs":[{"internalType":"uint256","name":"","type":"uint256"}],"stateMutability":"view","type":"function"},{"inputs":[],"name":"PROTOCOL_FEE_MULTIPLIER","outputs":[{"internalType":"uint32","name":"","type":"uint32"}],"stateMutability":"view","type":"function"},{"inputs":[{"components":[{"internalType":"contract IERC20Token","name":"makerToken","type":"address"},{"internalType":"contract IERC20Token","name":"takerToken","type":"address"},{"internalType":"uint128","name":"makerAmount","type":"uint128"},{"internalType":"uint128","name":"takerAmount","type":"uint128"},{"internalType":"uint128","name":"takerTokenFeeAmount","type":"uint128"},{"internalType":"address","name":"maker","type":"address"},{"internalType":"address","name":"taker","type":"address"},{"internalType":"address","name":"sender","type":"address"},{"internalType":"address","name":"feeRecipient","type":"address"},{"internalType":"bytes32","name":"pool","type":"bytes32"},{"internalType":"uint64","name":"expiry","type":"uint64"},{"internalType":"uint256","name":"salt","type":"uint256"}],"internalType":"struct LibNativeOrder.LimitOrder","name":"order","type":"tuple"},{"components":[{"internalType":"enum LibSignature.SignatureType","name":"signatureType","type":"uint8"},{"internalType":"uint8","name":"v","type":"uint8"},{"internalType":"bytes32","name":"r","type":"bytes32"},{"internalType":"bytes32","name":"s","type":"bytes32"}],"internalType":"struct LibSignature.Signature","name":"signature","type":"tuple"},{"internalType":"uint128","name":"takerTokenFillAmount","type":"uint128"},{"internalType":"address","name":"taker","type":"address"},{"internalType":"address","name":"sender","type":"address"}],"name":"_fillLimitOrder","outputs":[{"internalType":"uint128","name":"takerTokenFilledAmount","type":"uint128"},{"internalType":"uint128","name":"makerTokenFilledAmount","type":"uint128"}],"stateMutability":"payable","type":"function"},{"inputs":[{"components":[{"internalType":"contract IERC20Token","name":"makerToken","type":"address"},{"internalType":"contract IERC20Token","name":"takerToken","type":"address"},{"internalType":"uint128","name":"makerAmount","type":"uint128"},{"internalType":"uint128","name":"takerAmount","type":"uint128"},{"internalType":"address","name":"maker","type":"address"},{"internalType":"address","name":"taker","type":"address"},{"internalType":"address","name":"txOrigin","type":"address"},{"internalType":"bytes32","name":"pool","type":"bytes32"},{"internalType":"uint64","name":"expiry","type":"uint64"},{"internalType":"uint256","name":"salt","type":"uint256"}],"internalType":"struct LibNativeOrder.RfqOrder","name":"order","type":"tuple"},{"components":[{"internalType":"enum LibSignature.SignatureType","name":"signatureType","type":"uint8"},{"internalType":"uint8","name":"v","type":"uint8"},{"internalType":"bytes32","name":"r","type":"bytes32"},{"internalType":"bytes32","name":"s","type":"bytes32"}],"internalType":"struct LibSignature.Signature","name":"signature","type":"tuple"},{"internalType":"uint128","name":"takerTokenFillAmount","type":"uint128"},{"internalType":"address","name":"taker","type":"address"},{"internalType":"bool","name":"useSelfBalance","type":"bool"},{"internalType":"address","name":"recipient","type":"address"}],"name":"_fillRfqOrder","outputs":[{"internalType":"uint128","name":"takerTokenFilledAmount","type":"uint128"},{"internalType":"uint128","name":"makerTokenFilledAmount","type":"uint128"}],"stateMutability":"nonpayable","type":"function"},{"inputs":[{"components":[{"internalType":"contract IERC20Token","name":"makerToken","type":"address"},{"internalType":"contract IERC20Token","name":"takerToken","type":"address"},{"internalType":"uint128","name":"makerAmount","type":"uint128"},{"internalType":"uint128","name":"takerAmount","type":"uint128"},{"internalType":"uint128","name":"takerTokenFeeAmount","type":"uint128"},{"internalType":"address","name":"maker","type":"address"},{"internalType":"address","name":"taker","type":"address"},{"internalType":"address","name":"sender","type":"address"},{"internalType":"address","name":"feeRecipient","type":"address"},{"internalType":"bytes32","name":"pool","type":"bytes32"},{"internalType":"uint64","name":"expiry","type":"uint64"},{"internalType":"uint256","name":"salt","type":"uint256"}],"internalType":"struct LibNativeOrder.LimitOrder[]","name":"orders","type":"tuple[]"}],"name":"batchCancelLimitOrders","outputs":[],"stateMutability":"nonpayable","type":"function"},{"inputs":[{"internalType":"contract IERC20Token[]","name":"makerTokens","type":"address[]"},{"internalType":"contract IERC20Token[]","name":"takerTokens","type":"address[]"},{"internalType":"uint256[]","name":"minValidSalts","type":"uint256[]"}],"name":"batchCancelPairLimitOrders","outputs":[],"stateMutability":"nonpayable","type":"function"},{"inputs":[{"internalType":"address","name":"maker","type":"address"},{"internalType":"contract IERC20Token[]","name":"makerTokens","type":"address[]"},{"internalType":"contract IERC20Token[]","name":"takerTokens","type":"address[]"},{"internalType":"uint256[]","name":"minValidSalts","type":"uint256[]"}],"name":"batchCancelPairLimitOrdersWithSigner","outputs":[],"stateMutability":"nonpayable","type":"function"},{"inputs":[{"internalType":"contract IERC20Token[]","name":"makerTokens","type":"address[]"},{"internalType":"contract IERC20Token[]","name":"takerTokens","type":"address[]"},{"internalType":"uint256[]","name":"minValidSalts","type":"uint256[]"}],"name":"batchCancelPairRfqOrders","outputs":[],"stateMutability":"nonpayable","type":"function"},{"inputs":[{"internalType":"address","name":"maker","type":"address"},{"internalType":"contract IERC20Token[]","name":"makerTokens","type":"address[]"},{"internalType":"contract IERC20Token[]","name":"takerTokens","type":"address[]"},{"internalType":"uint256[]","name":"minValidSalts","type":"uint256[]"}],"name":"batchCancelPairRfqOrdersWithSigner","outputs":[],"stateMutability":"nonpayable","type":"function"},{"inputs":[{"components":[{"internalType":"contract IERC20Token","name":"makerToken","type":"address"},{"internalType":"contract IERC20Token","name":"takerToken","type":"address"},{"internalType":"uint128","name":"makerAmount","type":"uint128"},{"internalType":"uint128","name":"takerAmount","type":"uint128"},{"internalType":"address","name":"maker","type":"address"},{"internalType":"address","name":"taker","type":"address"},{"internalType":"address","name":"txOrigin","type":"address"},{"internalType":"bytes32","name":"pool","type":"bytes32"},{"internalType":"uint64","name":"expiry","type":"uint64"},{"internalType":"uint256","name":"salt","type":"uint256"}],"internalType":"struct LibNativeOrder.RfqOrder[]","name":"orders","type":"tuple[]"}],"name":"batchCancelRfqOrders","outputs":[],"stateMutability":"nonpayable","type":"function"},{"inputs":[{"components":[{"internalType":"contract IERC20Token","name":"makerToken","type":"address"},{"internalType":"contract IERC20Token","name":"takerToken","type":"address"},{"internalType":"uint128","name":"makerAmount","type":"uint128"},{"internalType":"uint128","name":"takerAmount","type":"uint128"},{"internalType":"uint128","name":"takerTokenFeeAmount","type":"uint128"},{"internalType":"address","name":"maker","type":"address"},{"internalType":"address","name":"taker","type":"address"},{"internalType":"address","name":"sender","type":"address"},{"internalType":"address","name":"feeRecipient","type":"address"},{"internalType":"bytes32","name":"pool","type":"bytes32"},{"internalType":"uint64","name":"expiry","type":"uint64"},{"internalType":"uint256","name":"salt","type":"uint256"}],"internalType":"struct LibNativeOrder.LimitOrder[]","name":"orders","type":"tuple[]"},{"components":[{"internalType":"enum LibSignature.SignatureType","name":"signatureType","type":"uint8"},{"internalType":"uint8","name":"v","type":"uint8"},{"internalType":"bytes32","name":"r","type":"bytes32"},{"internalType":"bytes32","name":"s","type":"bytes32"}],"internalType":"struct LibSignature.Signature[]","name":"signatures","type":"tuple[]"}],"name":"batchGetLimitOrderRelevantStates","outputs":[{"components":[{"internalType":"bytes32","name":"orderHash","type":"bytes32"},{"internalType":"enum LibNativeOrder.OrderStatus","name":"status","type":"uint8"},{"internalType":"uint128","name":"takerTokenFilledAmount","type":"uint128"}],"internalType":"struct LibNativeOrder.OrderInfo[]","name":"orderInfos","type":"tuple[]"},{"internalType":"uint128[]","name":"actualFillableTakerTokenAmounts","type":"uint128[]"},{"internalType":"bool[]","name":"isSignatureValids","type":"bool[]"}],"stateMutability":"view","type":"function"},{"inputs":[{"components":[{"internalType":"contract IERC20Token","name":"makerToken","type":"address"},{"internalType":"contract IERC20Token","name":"takerToken","type":"address"},{"internalType":"uint128","name":"makerAmount","type":"uint128"},{"internalType":"uint128","name":"takerAmount","type":"uint128"},{"internalType":"address","name":"maker","type":"address"},{"internalType":"address","name":"taker","type":"address"},{"internalType":"address","name":"txOrigin","type":"address"},{"internalType":"bytes32","name":"pool","type":"bytes32"},{"internalType":"uint64","name":"expiry","type":"uint64"},{"internalType":"uint256","name":"salt","type":"uint256"}],"internalType":"struct LibNativeOrder.RfqOrder[]","name":"orders","type":"tuple[]"},{"components":[{"internalType":"enum LibSignature.SignatureType","name":"signatureType","type":"uint8"},{"internalType":"uint8","name":"v","type":"uint8"},{"internalType":"bytes32","name":"r","type":"bytes32"},{"internalType":"bytes32","name":"s","type":"bytes32"}],"internalType":"struct LibSignature.Signature[]","name":"signatures","type":"tuple[]"}],"name":"batchGetRfqOrderRelevantStates","outputs":[{"components":[{"internalType":"bytes32","name":"orderHash","type":"bytes32"},{"internalType":"enum LibNativeOrder.OrderStatus","name":"status","type":"uint8"},{"internalType":"uint128","name":"takerTokenFilledAmount","type":"uint128"}],"internalType":"struct LibNativeOrder.OrderInfo[]","name":"orderInfos","type":"tuple[]"},{"internalType":"uint128[]","name":"actualFillableTakerTokenAmounts","type":"uint128[]"},{"internalType":"bool[]","name":"isSignatureValids","type":"bool[]"}],"stateMutability":"view","type":"function"},{"inputs":[{"components":[{"internalType":"contract IERC20Token","name":"makerToken","type":"address"},{"internalType":"contract IERC20Token","name":"takerToken","type":"address"},{"internalType":"uint128","name":"makerAmount","type":"uint128"},{"internalType":"uint128","name":"takerAmount","type":"uint128"},{"internalType":"uint128","name":"takerTokenFeeAmount","type":"uint128"},{"internalType":"address","name":"maker","type":"address"},{"internalType":"address","name":"taker","type":"address"},{"internalType":"address","name":"sender","type":"address"},{"internalType":"address","name":"feeRecipient","type":"address"},{"internalType":"bytes32","name":"pool","type":"bytes32"},{"internalType":"uint64","name":"expiry","type":"uint64"},{"internalType":"uint256","name":"salt","type":"uint256"}],"internalType":"struct LibNativeOrder.LimitOrder","name":"order","type":"tuple"}],"name":"cancelLimitOrder","outputs":[],"stateMutability":"nonpayable","type":"function"},{"inputs":[{"internalType":"contract IERC20Token","name":"makerToken","type":"address"},{"internalType":"contract IERC20Token","name":"takerToken","type":"address"},{"internalType":"uint256","name":"minValidSalt","type":"uint256"}],"name":"cancelPairLimitOrders","outputs":[],"stateMutability":"nonpayable","type":"function"},{"inputs":[{"internalType":"address","name":"maker","type":"address"},{"internalType":"contract IERC20Token","name":"makerToken","type":"address"},{"internalType":"contract IERC20Token","name":"takerToken","type":"address"},{"internalType":"uint256","name":"minValidSalt","type":"uint256"}],"name":"cancelPairLimitOrdersWithSigner","outputs":[],"stateMutability":"nonpayable","type":"function"},{"inputs":[{"internalType":"contract IERC20Token","name":"makerToken","type":"address"},{"internalType":"contract IERC20Token","name":"takerToken","type":"address"},{"internalType":"uint256","name":"minValidSalt","type":"uint256"}],"name":"cancelPairRfqOrders","outputs":[],"stateMutability":"nonpayable","type":"function"},{"inputs":[{"internalType":"address","name":"maker","type":"address"},{"internalType":"contract IERC20Token","name":"makerToken","type":"address"},{"internalType":"contract IERC20Token","name":"takerToken","type":"address"},{"internalType":"uint256","name":"minValidSalt","type":"uint256"}],"name":"cancelPairRfqOrdersWithSigner","outputs":[],"stateMutability":"nonpayable","type":"function"},{"inputs":[{"components":[{"internalType":"contract IERC20Token","name":"makerToken","type":"address"},{"internalType":"contract IERC20Token","name":"takerToken","type":"address"},{"internalType":"uint128","name":"makerAmount","type":"uint128"},{"internalType":"uint128","name":"takerAmount","type":"uint128"},{"internalType":"address","name":"maker","type":"address"},{"internalType":"address","name":"taker","type":"address"},{"internalType":"address","name":"txOrigin","type":"address"},{"internalType":"bytes32","name":"pool","type":"bytes32"},{"internalType":"uint64","name":"expiry","type":"uint64"},{"internalType":"uint256","name":"salt","type":"uint256"}],"internalType":"struct LibNativeOrder.RfqOrder","name":"order","type":"tuple"}],"name":"cancelRfqOrder","outputs":[],"stateMutability":"nonpayable","type":"function"},{"inputs":[{"components":[{"internalType":"contract IERC20Token","name":"makerToken","type":"address"},{"internalType":"contract IERC20Token","name":"takerToken","type":"address"},{"internalType":"uint128","name":"makerAmount","type":"uint128"},{"internalType":"uint128","name":"takerAmount","type":"uint128"},{"internalType":"uint128","name":"takerTokenFeeAmount","type":"uint128"},{"internalType":"address","name":"maker","type":"address"},{"internalType":"address","name":"taker","type":"address"},{"internalType":"address","name":"sender","type":"address"},{"internalType":"address","name":"feeRecipient","type":"address"},{"internalType":"bytes32","name":"pool","type":"bytes32"},{"internalType":"uint64","name":"expiry","type":"uint64"},{"internalType":"uint256","name":"salt","type":"uint256"}],"internalType":"struct LibNativeOrder.LimitOrder","name":"order","type":"tuple"},{"components":[{"internalType":"enum LibSignature.SignatureType","name":"signatureType","type":"uint8"},{"internalType":"uint8","name":"v","type":"uint8"},{"internalType":"bytes32","name":"r","type":"bytes32"},{"internalType":"bytes32","name":"s","type":"bytes32"}],"internalType":"struct LibSignature.Signature","name":"signature","type":"tuple"},{"internalType":"uint128","name":"takerTokenFillAmount","type":"uint128"}],"name":"fillLimitOrder","outputs":[{"internalType":"uint128","name":"takerTokenFilledAmount","type":"uint128"},{"internalType":"uint128","name":"makerTokenFilledAmount","type":"uint128"}],"stateMutability":"payable","type":"function"},{"inputs":[{"components":[{"internalType":"contract IERC20Token","name":"makerToken","type":"address"},{"internalType":"contract IERC20Token","name":"takerToken","type":"address"},{"internalType":"uint128","name":"makerAmount","type":"uint128"},{"internalType":"uint128","name":"takerAmount","type":"uint128"},{"internalType":"uint128","name":"takerTokenFeeAmount","type":"uint128"},{"internalType":"address","name":"maker","type":"address"},{"internalType":"address","name":"taker","type":"address"},{"internalType":"address","name":"sender","type":"address"},{"internalType":"address","name":"feeRecipient","type":"address"},{"internalType":"bytes32","name":"pool","type":"bytes32"},{"internalType":"uint64","name":"expiry","type":"uint64"},{"internalType":"uint256","name":"salt","type":"uint256"}],"internalType":"struct LibNativeOrder.LimitOrder","name":"order","type":"tuple"},{"components":[{"internalType":"enum LibSignature.SignatureType","name":"signatureType","type":"uint8"},{"internalType":"uint8","name":"v","type":"uint8"},{"internalType":"bytes32","name":"r","type":"bytes32"},{"internalType":"bytes32","name":"s","type":"bytes32"}],"internalType":"struct LibSignature.Signature","name":"signature","type":"tuple"},{"internalType":"uint128","name":"takerTokenFillAmount","type":"uint128"}],"name":"fillOrKillLimitOrder","outputs":[{"internalType":"uint128","name":"makerTokenFilledAmount","type":"uint128"}],"stateMutability":"payable","type":"function"},{"inputs":[{"components":[{"internalType":"contract IERC20Token","name":"makerToken","type":"address"},{"internalType":"contract IERC20Token","name":"takerToken","type":"address"},{"internalType":"uint128","name":"makerAmount","type":"uint128"},{"internalType":"uint128","name":"takerAmount","type":"uint128"},{"internalType":"address","name":"maker","type":"address"},{"internalType":"address","name":"taker","type":"address"},{"internalType":"address","name":"txOrigin","type":"address"},{"internalType":"bytes32","name":"pool","type":"bytes32"},{"internalType":"uint64","name":"expiry","type":"uint64"},{"internalType":"uint256","name":"salt","type":"uint256"}],"internalType":"struct LibNativeOrder.RfqOrder","name":"order","type":"tuple"},{"components":[{"internalType":"enum LibSignature.SignatureType","name":"signatureType","type":"uint8"},{"internalType":"uint8","name":"v","type":"uint8"},{"internalType":"bytes32","name":"r","type":"bytes32"},{"internalType":"bytes32","name":"s","type":"bytes32"}],"internalType":"struct LibSignature.Signature","name":"signature","type":"tuple"},{"internalType":"uint128","name":"takerTokenFillAmount","type":"uint128"}],"name":"fillOrKillRfqOrder","outputs":[{"internalType":"uint128","name":"makerTokenFilledAmount","type":"uint128"}],"stateMutability":"nonpayable","type":"function"},{"inputs":[{"components":[{"internalType":"contract IERC20Token","name":"makerToken","type":"address"},{"internalType":"contract IERC20Token","name":"takerToken","type":"address"},{"internalType":"uint128","name":"makerAmount","type":"uint128"},{"internalType":"uint128","name":"takerAmount","type":"uint128"},{"internalType":"address","name":"maker","type":"address"},{"internalType":"address","name":"taker","type":"address"},{"internalType":"address","name":"txOrigin","type":"address"},{"internalType":"bytes32","name":"pool","type":"bytes32"},{"internalType":"uint64","name":"expiry","type":"uint64"},{"internalType":"uint256","name":"salt","type":"uint256"}],"internalType":"struct LibNativeOrder.RfqOrder","name":"order","type":"tuple"},{"components":[{"internalType":"enum LibSignature.SignatureType","name":"signatureType","type":"uint8"},{"internalType":"uint8","name":"v","type":"uint8"},{"internalType":"bytes32","name":"r","type":"bytes32"},{"internalType":"bytes32","name":"s","type":"bytes32"}],"internalType":"struct LibSignature.Signature","name":"signature","type":"tuple"},{"internalType":"uint128","name":"takerTokenFillAmount","type":"uint128"}],"name":"fillRfqOrder","outputs":[{"internalType":"uint128","name":"takerTokenFilledAmount","type":"uint128"},{"internalType":"uint128","name":"makerTokenFilledAmount","type":"uint128"}],"stateMutability":"nonpayable","type":"function"},{"inputs":[{"components":[{"internalType":"contract IERC20Token","name":"makerToken","type":"address"},{"internalType":"contract IERC20Token","name":"takerToken","type":"address"},{"internalType":"uint128","name":"makerAmount","type":"uint128"},{"internalType":"uint128","name":"takerAmount","type":"uint128"},{"internalType":"uint128","name":"takerTokenFeeAmount","type":"uint128"},{"internalType":"address","name":"maker","type":"address"},{"internalType":"address","name":"taker","type":"address"},{"internalType":"address","name":"sender","type":"address"},{"internalType":"address","name":"feeRecipient","type":"address"},{"internalType":"bytes32","name":"pool","type":"bytes32"},{"internalType":"uint64","name":"expiry","type":"uint64"},{"internalType":"uint256","name":"salt","type":"uint256"}],"internalType":"struct LibNativeOrder.LimitOrder","name":"order","type":"tuple"}],"name":"getLimitOrderHash","outputs":[{"internalType":"bytes32","name":"orderHash","type":"bytes32"}],"stateMutability":"view","type":"function"},{"inputs":[{"components":[{"internalType":"contract IERC20Token","name":"makerToken","type":"address"},{"internalType":"contract IERC20Token","name":"takerToken","type":"address"},{"internalType":"uint128","name":"makerAmount","type":"uint128"},{"internalType":"uint128","name":"takerAmount","type":"uint128"},{"internalType":"uint128","name":"takerTokenFeeAmount","type":"uint128"},{"internalType":"address","name":"maker","type":"address"},{"internalType":"address","name":"taker","type":"address"},{"internalType":"address","name":"sender","type":"address"},{"internalType":"address","name":"feeRecipient","type":"address"},{"internalType":"bytes32","name":"pool","type":"bytes32"},{"internalType":"uint64","name":"expiry","type":"uint64"},{"internalType":"uint256","name":"salt","type":"uint256"}],"internalType":"struct LibNativeOrder.LimitOrder","name":"order","type":"tuple"}],"name":"getLimitOrderInfo","outputs":[{"components":[{"internalType":"bytes32","name":"orderHash","type":"bytes32"},{"internalType":"enum LibNativeOrder.OrderStatus","name":"status","type":"uint8"},{"internalType":"uint128","name":"takerTokenFilledAmount","type":"uint128"}],"internalType":"struct LibNativeOrder.OrderInfo","name":"orderInfo","type":"tuple"}],"stateMutability":"view","type":"function"},{"inputs":[{"components":[{"internalType":"contract IERC20Token","name":"makerToken","type":"address"},{"internalType":"contract IERC20Token","name":"takerToken","type":"address"},{"internalType":"uint128","name":"makerAmount","type":"uint128"},{"internalType":"uint128","name":"takerAmount","type":"uint128"},{"internalType":"uint128","name":"takerTokenFeeAmount","type":"uint128"},{"internalType":"address","name":"maker","type":"address"},{"internalType":"address","name":"taker","type":"address"},{"internalType":"address","name":"sender","type":"address"},{"internalType":"address","name":"feeRecipient","type":"address"},{"internalType":"bytes32","name":"pool","type":"bytes32"},{"internalType":"uint64","name":"expiry","type":"uint64"},{"internalType":"uint256","name":"salt","type":"uint256"}],"internalType":"struct LibNativeOrder.LimitOrder","name":"order","type":"tuple"},{"components":[{"internalType":"enum LibSignature.SignatureType","name":"signatureType","type":"uint8"},{"internalType":"uint8","name":"v","type":"uint8"},{"internalType":"bytes32","name":"r","type":"bytes32"},{"internalType":"bytes32","name":"s","type":"bytes32"}],"internalType":"struct LibSignature.Signature","name":"signature","type":"tuple"}],"name":"getLimitOrderRelevantState","outputs":[{"components":[{"internalType":"bytes32","name":"orderHash","type":"bytes32"},{"internalType":"enum LibNativeOrder.OrderStatus","name":"status","type":"uint8"},{"internalType":"uint128","name":"takerTokenFilledAmount","type":"uint128"}],"internalType":"struct LibNativeOrder.OrderInfo","name":"orderInfo","type":"tuple"},{"internalType":"uint128","name":"actualFillableTakerTokenAmount","type":"uint128"},{"internalType":"bool","name":"isSignatureValid","type":"bool"}],"stateMutability":"view","type":"function"},{"inputs":[],"name":"getProtocolFeeMultiplier","outputs":[{"internalType":"uint32","name":"multiplier","type":"uint32"}],"stateMutability":"view","type":"function"},{"inputs":[{"components":[{"internalType":"contract IERC20Token","name":"makerToken","type":"address"},{"internalType":"contract IERC20Token","name":"takerToken","type":"address"},{"internalType":"uint128","name":"makerAmount","type":"uint128"},{"internalType":"uint128","name":"takerAmount","type":"uint128"},{"internalType":"address","name":"maker","type":"address"},{"internalType":"address","name":"taker","type":"address"},{"internalType":"address","name":"txOrigin","type":"address"},{"internalType":"bytes32","name":"pool","type":"bytes32"},{"internalType":"uint64","name":"expiry","type":"uint64"},{"internalType":"uint256","name":"salt","type":"uint256"}],"internalType":"struct LibNativeOrder.RfqOrder","name":"order","type":"tuple"}],"name":"getRfqOrderHash","outputs":[{"internalType":"bytes32","name":"orderHash","type":"bytes32"}],"stateMutability":"view","type":"function"},{"inputs":[{"components":[{"internalType":"contract IERC20Token","name":"makerToken","type":"address"},{"internalType":"contract IERC20Token","name":"takerToken","type":"address"},{"internalType":"uint128","name":"makerAmount","type":"uint128"},{"internalType":"uint128","name":"takerAmount","type":"uint128"},{"internalType":"address","name":"maker","type":"address"},{"internalType":"address","name":"taker","type":"address"},{"internalType":"address","name":"txOrigin","type":"address"},{"internalType":"bytes32","name":"pool","type":"bytes32"},{"internalType":"uint64","name":"expiry","type":"uint64"},{"internalType":"uint256","name":"salt","type":"uint256"}],"internalType":"struct LibNativeOrder.RfqOrder","name":"order","type":"tuple"}],"name":"getRfqOrderInfo","outputs":[{"components":[{"internalType":"bytes32","name":"orderHash","type":"bytes32"},{"internalType":"enum LibNativeOrder.OrderStatus","name":"status","type":"uint8"},{"internalType":"uint128","name":"takerTokenFilledAmount","type":"uint128"}],"internalType":"struct LibNativeOrder.OrderInfo","name":"orderInfo","type":"tuple"}],"stateMutability":"view","type":"function"},{"inputs":[{"components":[{"internalType":"contract IERC20Token","name":"makerToken","type":"address"},{"internalType":"contract IERC20Token","name":"takerToken","type":"address"},{"internalType":"uint128","name":"makerAmount","type":"uint128"},{"internalType":"uint128","name":"takerAmount","type":"uint128"},{"internalType":"address","name":"maker","type":"address"},{"internalType":"address","name":"taker","type":"address"},{"internalType":"address","name":"txOrigin","type":"address"},{"internalType":"bytes32","name":"pool","type":"bytes32"},{"internalType":"uint64","name":"expiry","type":"uint64"},{"internalType":"uint256","name":"salt","type":"uint256"}],"internalType":"struct LibNativeOrder.RfqOrder","name":"order","type":"tuple"},{"components":[{"internalType":"enum LibSignature.SignatureType","name":"signatureType","type":"uint8"},{"internalType":"uint8","name":"v","type":"uint8"},{"internalType":"bytes32","name":"r","type":"bytes32"},{"internalType":"bytes32","name":"s","type":"bytes32"}],"internalType":"struct LibSignature.Signature","name":"signature","type":"tuple"}],"name":"getRfqOrderRelevantState","outputs":[{"components":[{"internalType":"bytes32","name":"orderHash","type":"bytes32"},{"internalType":"enum LibNativeOrder.OrderStatus","name":"status","type":"uint8"},{"internalType":"uint128","name":"takerTokenFilledAmount","type":"uint128"}],"internalType":"struct LibNativeOrder.OrderInfo","name":"orderInfo","type":"tuple"},{"internalType":"uint128","name":"actualFillableTakerTokenAmount","type":"uint128"},{"internalType":"bool","name":"isSignatureValid","type":"bool"}],"stateMutability":"view","type":"function"},{"inputs":[{"internalType":"address","name":"maker","type":"address"},{"internalType":"address","name":"signer","type":"address"}],"name":"isValidOrderSigner","outputs":[{"internalType":"bool","name":"isValid","type":"bool"}],"stateMutability":"view","type":"function"},{"inputs":[],"name":"migrate","outputs":[{"internalType":"bytes4","name":"success","type":"bytes4"}],"stateMutability":"nonpayable","type":"function"},{"inputs":[{"internalType":"address","name":"signer","type":"address"},{"internalType":"bool","name":"allowed","type":"bool"}],"name":"registerAllowedOrderSigner","outputs":[],"stateMutability":"nonpayable","type":"function"},{"inputs":[{"internalType":"address[]","name":"origins","type":"address[]"},{"internalType":"bool","name":"allowed","type":"bool"}],"name":"registerAllowedRfqOrigins","outputs":[],"stateMutability":"nonpayable","type":"function"},{"inputs":[{"internalType":"bytes32[]","name":"poolIds","type":"bytes32[]"}],"name":"transferProtocolFeesForPools","outputs":[],"stateMutability":"nonpayable","type":"function"}]}